:040000000CEF00F011
:10000800FACF01F0FBCF02F0E9CF03F0E3ED09F0FE
:04001800AFEF0CF04A
:1010000000E0FC2BFD76FD00008A02D50220030AD9
:101010000D4B77616E746C656E20415053433132D5
:1010200039392073696D706C65206375727665203F
:10103000666F6C6C6F776572202D2D2077697468F0
:10104000206572726F7220636F6465730A0D0020F1
:101050003C72657365743E20003C53544B46554CBE
:101060003E003C57445420544F3E005C3C4C564498
:101070003E003C424F523E003C504F523E0000006A
:101080001A6E010E1B6E1550020D010EF324F66E42
:10109000100EF420F76EF86A000EF8220900F5CF62
:1010A00018F00900F5CF19F0165018241C6E1750CF
:1010B00019201D6E1D50800AF36E800EF35C000E29
:1010C000D8B41C5CD8B006D0000E1B6E1C6C1D1E64
:1010D000D8B01D2A1D50800A7D0F210ED8B41C5C8B
:1010E000D8A004D0030E1D6E200E1C6E1A6616D0FA
:1010F0001CC00FF01DC010F0D4EC0AF01B6602D02B
:10110000829001D0828082B002D0010E01D0000E08
:10111000186E184684501818FD0B14D01CC00FF020
:101120001DC010F0F1EC0AF01B6602D0829A01D0CB
:10113000828A82BA02D0010E01D0000E186E84504D
:101140001818FE0B1818846E1200870EFFEC0BF0B7
:1011500011501E5C12501F58D8B002D0010E01D0A1
:10116000000E146E143A20501418EF0B1418206E51
:101170008F0EFFEC0BF011501E5C12501F58D8B0B0
:1011800002D0010E01D0000E146E1446144614460F
:1011900020501418F70B1418206E970EFFEC0BF06C
:1011A00011501E5C12501F58D8B002D0010E01D051
:1011B000000E146E1446144620501418FB0B14181D
:1011C000206E9F0EFFEC0BF011501E5C12501F584A
:1011D000D8B002D0010E01D0000E146E144620507B
:1011E0001418FD0B1418206EA70EFFEC0BF0115015
:1011F0001E5C12501F58D8B002D0010E01D0000E54
:10120000146E20501418FE0B1418206E1200000EDD
:10121000146E000E156E000E166E000E176E000E88
:10122000186E000E196E000E1A6E000E1B6ECFECBB
:101230000CF0100E106E780E0F6E77EC0BF08390A2
:1012400083828384838683882CD004001950750A96
:10125000300ED8B418181A101B10D8A411D0000ED4
:10126000186E000E196E000E1A6E000E1B6E010E27
:101270001426000E152216221722839083820BD08B
:1012800019503A0A980ED8B418181A101B10D8A47E
:1012900002D083808392010E1826000E19221A2292
:1012A0001B220A0E145C000E1558000E1658000E74
:1012B0001758D8B01200C9D72090209220942096B9
:1012C0002098D08EF29EF29C8CEC0BF0D5EC0CF0BA
:1012D000000E106E100E0F6E3C0E22EC0AF0DEECCB
:1012E0000CF0000E836EB4EC0AF0BDEC0CF0DBECFD
:1012F0000CF0D8EC0CF0D2EC0CF07BEC0CF00C0EFB
:101300000F6E0A0E106EA70E56EC0AF0829A8490A9
:1013100082908492060E6DEC0CF0C70EA6EC0CF0D9
:10132000C70E0EEC0BF0000E106E000E0F6EF1ECFF
:101330000AF0000E106E000E0F6ED4EC0AF0020ED2
:101340001F6E000E1E6E120020B802D0010E01D0DA
:10135000000E0F6E83500F18FE0B0F18836E20B611
:1013600002D0010E01D0000E0F6E0F4683500F18F1
:10137000FD0B0F18836E20B402D0010E01D0000EB9
:101380000F6E0F460F4683500F18FB0B0F18836E1E
:1013900020B202D0010E01D0000E0F6E0F460F4694
:1013A0000F4683500F18F70B0F18836E20B002D032
:1013B000010E01D0000E0F6E0F3A83500F18EF0B85
:1013C0000F18836E12000600EACF04F0E1CF05F09B
:1013D000E2CF06F0D9CF07F0DACF08F0F3CF09F06B
:1013E000F4CF0AF0F6CF0BF0F7CF0CF0F8CF0DF0FA
:1013F000F5CF0EF0A1949268936894689568030EF7
:10140000966E010E216EA094D2980EC0F5FF0DC00D
:10141000F8FF0CC0F7FF0BC0F6FF0AC0F4FF09C0CD
:10142000F3FF08C0DAFF07C0D9FF06C0E2FF05C01E
:10143000E1FF04C0EAFF03C0E9FF02C0FBFF01C0F7
:10144000FAFF1100146E000EAC6E000EAB6E14B0FD
:10145000AC8814A202D0AC8CAB8C14B4AC8E14A6A5
:1014600002D0AB8801D0AB8A14B8AC849E9814BA71
:10147000AB8614AC02D09D8A01D09D9A9E9A14AE80
:1014800002D09D8801D09D980FC0AFFF10C011F011
:1014900011C012F0136A1250B06EAC8AAB8E949CDD
:1014A000948EACB8ACBE01D0948C1200136E000EBA
:1014B000C26E000EC06ED8900F303C0BC26E0FC0D3
:1014C00011F0113AF00E1116300E111610500F0BCC
:1014D0001110C16E13C011F0D8901136D89011368A
:1014E000380E111613C012F0123A0F0E1216070E14
:1014F00012161350800B12101110C06E0FAE03D0D5
:101500009E9C9D8CF28CC2801200000E0F6E000E0D
:10151000106E000E116E000E126E04001050750A4F
:10152000300ED8B40F1811101210D8A40BD0000E22
:101530000F6E000E106E000E116E000E126E839074
:1015400083820BD010503A0A980ED8B40F1811109D
:101550001210D8A402D083808392010E0F26000EB1
:10156000102211221222D9D79CEC0CF00009D8B419
:1015700003D007EC09F017D0B6EC0CF00009D8B492
:1015800003D022EC0CF00FD092EC0CF00009D8B490
:1015900003D051EC0CF007D0FCAE03D042EC0CF0C1
:1015A00002D05FEC0CF012000FC011F010C012F06E
:1015B000060ED89011361236E82EFBD711C013F064
:1015C00012C014F014C0BBFF13C011F0D890113238
:1015D000D8901132300E1116BA50CF0B1110BA6ECE
:1015E00012000FC011F010C012F0060ED890113684
:1015F0001236E82EFBD711C013F012C014F014C03D
:10160000BEFF13C011F0D8901132D8901132300EB5
:101610001116BD50CF0B1110BD6E1200106E0C0EC6
:10162000BA6E050EF66E000EF76E300EF86E0800FC
:10163000F5CF0FF00FA002D0116802D0000E116E8E
:101640001150D8B402D0949201D09396CA9410C08D
:10165000CBFFCA84120006D05FEC0BF017D011EC60
:101660000CF014D020501F0B000AD8B4F8D7010A90
:10167000D8B4F2D7030AD8B4EFD7060AD8B4ECD757
:101680000C0AD8B4E9D7180AD8B4E6D712005CEC33
:1016900009F0100E106E0F0E0F6E77EC0BF00400B9
:1016A000A5EC08F0A4EC09F02BEC0BF00400E1EC45
:1016B0000CF00009D8B4F4D732EC0CF0F1D720A428
:1016C00003D0C6EC0BF012D020A803D0ECEC0BF04A
:1016D0000DD020A603D0B3EC0BF008D020A203D08D
:1016E000A0EC0BF003D020B0D9EC0BF01200000EF0
:1016F000126E110E116E03D01350E5EC0CF00FC0FA
:10170000F6FF10C0F7FF0F4A102AF86A0800F5CF5D
:1017100013F01366F1D71200D38CD38AD3889B8C35
:10172000000E106E000E0F6E1050800A7F0FF40E28
:10173000D8B40F5CD8B003D00F4A102AF5D71200E6
:10174000060E156E000E176E000E166E000E40ECA3
:1017500008F0030E156E000E176E000E166E010EC9
:1017600040EC08F01200030E156E000E176E000E0E
:10177000166E000E40EC08F0060E156E000E176E89
:10178000000E166E010E40EC08F01200060E156EEB
:10179000000E176E000E166E000E40EC08F0060EDE
:1017A000156E000E176E000E166E010E40EC08F05E
:1017B0001200060E156E000E176E000E166E000E4D
:1017C00040EC08F0000E156E000E176E000E166E3F
:1017D000010E40EC08F01200000E156E000E176EA0
:1017E000000E166E000E40EC08F0060E156E000E90
:1017F000176E000E166E010E40EC08F01200136E0C
:10180000135087EC0CF0E3EC0CF0C4EC0CF0000986
:10181000D8A4FBD7CAEC0CF00FC011F010C012F026
:101820001200030E106E200E0F6EF1EC0AF0030E84
:10183000106E200E0F6ED4EC0AF084928290849089
:10184000829A1200CFEC0CF0100E106E720E0F6E1A
:1018500077EC0BF08380838283848386839885EC86
:101860000AF01200100E106E6B0E0F6E77EC0BF07C
:10187000DEEC0CF08390838283848396838885ECEE
:101880000AF01200FC9E100E106E590E0F6E77ECCF
:101890000BF08390838283948386839885EC0AF08F
:1018A0001200100E106E620E0F6E77EC0BF083902C
:1018B000838283948386838885EC0AF01200100E5D
:1018C000106E4F0E0F6E77EC0BF083908382839433
:1018D0008396839885EC0AF012000F6E0F50FB0B75
:1018E000CA6E000ECC6E9E920FAE02D09D8201D0C9
:1018F0009D92CA841200D08ED288A284D29ED286B3
:10190000D284D282D290A194A084F28E1200106E62
:10191000C2CF0FF0C30E0F16D89010303C0B0F1033
:10192000C26E1200D0B2D0A405D0D0B0D0B602D0D2
:10193000010E01D0000E1200D0A2D0A405D0D0A07C
:10194000D0A602D0010E01D0000E12000F6E0C0EB8
:10195000BD129494CA940FC0CBFFCA841200216AAE
:10196000206A1F6A1E6A000147EF0BF0D0A0D0A2C8
:1019700002D0010E01D0000E120094909492949423
:1019800094969498949A1200C2A202D0010E01D0AB
:10199000000E1200C450106EC3500F6E1200D082A1
:1019A000D0801200000E966E1200949C948E12004D
:1019B000C00E936E1200EF0E926E1200600E956EC6
:0C19C000120021501200C282120012001E
:020000040020DA
:08000000FFFFFFFFFFFFFFFF00
:020000040030CA
:0E000000FF090306FF0381FF0FC00FE00F4052
:00000001FF
